{
  "abi": [
    {
      "inputs": [
        {
          "internalType": "string",
          "name": "_name",
          "type": "string"
        },
        {
          "internalType": "string",
          "name": "_symbol",
          "type": "string"
        },
        {
          "internalType": "address",
          "name": "_metadataModifierAddress",
          "type": "address"
        },
        {
          "internalType": "string",
          "name": "_myBaseURI",
          "type": "string"
        }
      ],
      "stateMutability": "nonpayable",
      "type": "constructor"
    },
    {
      "anonymous": false,
      "inputs": [
        {
          "indexed": true,
          "internalType": "address",
          "name": "owner",
          "type": "address"
        },
        {
          "indexed": true,
          "internalType": "address",
          "name": "approved",
          "type": "address"
        },
        {
          "indexed": true,
          "internalType": "uint256",
          "name": "tokenId",
          "type": "uint256"
        }
      ],
      "name": "Approval",
      "type": "event"
    },
    {
      "anonymous": false,
      "inputs": [
        {
          "indexed": true,
          "internalType": "address",
          "name": "owner",
          "type": "address"
        },
        {
          "indexed": true,
          "internalType": "address",
          "name": "operator",
          "type": "address"
        },
        {
          "indexed": false,
          "internalType": "bool",
          "name": "approved",
          "type": "bool"
        }
      ],
      "name": "ApprovalForAll",
      "type": "event"
    },
    {
      "anonymous": false,
      "inputs": [
        {
          "indexed": true,
          "internalType": "uint256",
          "name": "_tokenId",
          "type": "uint256"
        }
      ],
      "name": "MetadataUpdate",
      "type": "event"
    },
    {
      "anonymous": false,
      "inputs": [
        {
          "indexed": true,
          "internalType": "address",
          "name": "_to",
          "type": "address"
        },
        {
          "indexed": true,
          "internalType": "uint256",
          "name": "_tokenId",
          "type": "uint256"
        }
      ],
      "name": "Mint",
      "type": "event"
    },
    {
      "anonymous": false,
      "inputs": [
        {
          "indexed": true,
          "internalType": "address",
          "name": "previousOwner",
          "type": "address"
        },
        {
          "indexed": true,
          "internalType": "address",
          "name": "newOwner",
          "type": "address"
        }
      ],
      "name": "OwnershipTransferred",
      "type": "event"
    },
    {
      "anonymous": false,
      "inputs": [
        {
          "indexed": true,
          "internalType": "address",
          "name": "from",
          "type": "address"
        },
        {
          "indexed": true,
          "internalType": "address",
          "name": "to",
          "type": "address"
        },
        {
          "indexed": true,
          "internalType": "uint256",
          "name": "tokenId",
          "type": "uint256"
        }
      ],
      "name": "Transfer",
      "type": "event"
    },
    {
      "inputs": [
        {
          "internalType": "address",
          "name": "to",
          "type": "address"
        },
        {
          "internalType": "uint256",
          "name": "tokenId",
          "type": "uint256"
        }
      ],
      "name": "approve",
      "outputs": [],
      "stateMutability": "nonpayable",
      "type": "function"
    },
    {
      "inputs": [
        {
          "internalType": "address",
          "name": "owner",
          "type": "address"
        }
      ],
      "name": "balanceOf",
      "outputs": [
        {
          "internalType": "uint256",
          "name": "",
          "type": "uint256"
        }
      ],
      "stateMutability": "view",
      "type": "function"
    },
    {
      "inputs": [],
      "name": "baseURI",
      "outputs": [
        {
          "internalType": "string",
          "name": "",
          "type": "string"
        }
      ],
      "stateMutability": "view",
      "type": "function"
    },
    {
      "inputs": [],
      "name": "currentTokenId",
      "outputs": [
        {
          "internalType": "uint256",
          "name": "",
          "type": "uint256"
        }
      ],
      "stateMutability": "view",
      "type": "function"
    },
    {
      "inputs": [
        {
          "internalType": "uint256",
          "name": "tokenId",
          "type": "uint256"
        }
      ],
      "name": "getApproved",
      "outputs": [
        {
          "internalType": "address",
          "name": "",
          "type": "address"
        }
      ],
      "stateMutability": "view",
      "type": "function"
    },
    {
      "inputs": [
        {
          "internalType": "address",
          "name": "owner",
          "type": "address"
        },
        {
          "internalType": "address",
          "name": "operator",
          "type": "address"
        }
      ],
      "name": "isApprovedForAll",
      "outputs": [
        {
          "internalType": "bool",
          "name": "",
          "type": "bool"
        }
      ],
      "stateMutability": "view",
      "type": "function"
    },
    {
      "inputs": [
        {
          "internalType": "uint256",
          "name": "",
          "type": "uint256"
        }
      ],
      "name": "metadataModified",
      "outputs": [
        {
          "internalType": "bool",
          "name": "",
          "type": "bool"
        }
      ],
      "stateMutability": "view",
      "type": "function"
    },
    {
      "inputs": [],
      "name": "metadataModifierAddress",
      "outputs": [
        {
          "internalType": "address",
          "name": "",
          "type": "address"
        }
      ],
      "stateMutability": "view",
      "type": "function"
    },
    {
      "inputs": [],
      "name": "mint",
      "outputs": [],
      "stateMutability": "nonpayable",
      "type": "function"
    },
    {
      "inputs": [],
      "name": "name",
      "outputs": [
        {
          "internalType": "string",
          "name": "",
          "type": "string"
        }
      ],
      "stateMutability": "view",
      "type": "function"
    },
    {
      "inputs": [],
      "name": "owner",
      "outputs": [
        {
          "internalType": "address",
          "name": "",
          "type": "address"
        }
      ],
      "stateMutability": "view",
      "type": "function"
    },
    {
      "inputs": [
        {
          "internalType": "uint256",
          "name": "tokenId",
          "type": "uint256"
        }
      ],
      "name": "ownerOf",
      "outputs": [
        {
          "internalType": "address",
          "name": "",
          "type": "address"
        }
      ],
      "stateMutability": "view",
      "type": "function"
    },
    {
      "inputs": [],
      "name": "renounceOwnership",
      "outputs": [],
      "stateMutability": "nonpayable",
      "type": "function"
    },
    {
      "inputs": [
        {
          "internalType": "address",
          "name": "from",
          "type": "address"
        },
        {
          "internalType": "address",
          "name": "to",
          "type": "address"
        },
        {
          "internalType": "uint256",
          "name": "tokenId",
          "type": "uint256"
        }
      ],
      "name": "safeTransferFrom",
      "outputs": [],
      "stateMutability": "nonpayable",
      "type": "function"
    },
    {
      "inputs": [
        {
          "internalType": "address",
          "name": "from",
          "type": "address"
        },
        {
          "internalType": "address",
          "name": "to",
          "type": "address"
        },
        {
          "internalType": "uint256",
          "name": "tokenId",
          "type": "uint256"
        },
        {
          "internalType": "bytes",
          "name": "data",
          "type": "bytes"
        }
      ],
      "name": "safeTransferFrom",
      "outputs": [],
      "stateMutability": "nonpayable",
      "type": "function"
    },
    {
      "inputs": [
        {
          "internalType": "address",
          "name": "operator",
          "type": "address"
        },
        {
          "internalType": "bool",
          "name": "approved",
          "type": "bool"
        }
      ],
      "name": "setApprovalForAll",
      "outputs": [],
      "stateMutability": "nonpayable",
      "type": "function"
    },
    {
      "inputs": [
        {
          "internalType": "address",
          "name": "_metadataModifierAddress",
          "type": "address"
        }
      ],
      "name": "setMetadataModifierAddress",
      "outputs": [],
      "stateMutability": "nonpayable",
      "type": "function"
    },
    {
      "inputs": [
        {
          "internalType": "uint256",
          "name": "_tokenId",
          "type": "uint256"
        },
        {
          "internalType": "string",
          "name": "_tokenURI",
          "type": "string"
        }
      ],
      "name": "setTokenURI",
      "outputs": [],
      "stateMutability": "nonpayable",
      "type": "function"
    },
    {
      "inputs": [
        {
          "internalType": "bytes4",
          "name": "interfaceId",
          "type": "bytes4"
        }
      ],
      "name": "supportsInterface",
      "outputs": [
        {
          "internalType": "bool",
          "name": "",
          "type": "bool"
        }
      ],
      "stateMutability": "view",
      "type": "function"
    },
    {
      "inputs": [],
      "name": "symbol",
      "outputs": [
        {
          "internalType": "string",
          "name": "",
          "type": "string"
        }
      ],
      "stateMutability": "view",
      "type": "function"
    },
    {
      "inputs": [
        {
          "internalType": "uint256",
          "name": "_tokenId",
          "type": "uint256"
        }
      ],
      "name": "tokenURI",
      "outputs": [
        {
          "internalType": "string",
          "name": "",
          "type": "string"
        }
      ],
      "stateMutability": "view",
      "type": "function"
    },
    {
      "inputs": [
        {
          "internalType": "address",
          "name": "from",
          "type": "address"
        },
        {
          "internalType": "address",
          "name": "to",
          "type": "address"
        },
        {
          "internalType": "uint256",
          "name": "tokenId",
          "type": "uint256"
        }
      ],
      "name": "transferFrom",
      "outputs": [],
      "stateMutability": "nonpayable",
      "type": "function"
    },
    {
      "inputs": [
        {
          "internalType": "address",
          "name": "newOwner",
          "type": "address"
        }
      ],
      "name": "transferOwnership",
      "outputs": [],
      "stateMutability": "nonpayable",
      "type": "function"
    }
  ],
  "bytecode": {
    "object": "0x60806040523480156200001157600080fd5b506040516200271f3803806200271f8339810160408190526200003491620001c5565b8383600062000044838262000307565b50600162000053828262000307565b505050620000706200006a620000aa60201b60201c565b620000ae565b600880546001600160a01b0319166001600160a01b038416179055600962000099828262000307565b50506000600a5550620003d3915050565b3390565b600780546001600160a01b038381166001600160a01b0319831681179093556040519116919082907f8be0079c531659141344cd1fd0a4f28419497f9722a3daafe3b4186f6b6457e090600090a35050565b634e487b7160e01b600052604160045260246000fd5b600082601f8301126200012857600080fd5b81516001600160401b038082111562000145576200014562000100565b604051601f8301601f19908116603f0116810190828211818310171562000170576200017062000100565b816040528381526020925086838588010111156200018d57600080fd5b600091505b83821015620001b1578582018301518183018401529082019062000192565b600093810190920192909252949350505050565b60008060008060808587031215620001dc57600080fd5b84516001600160401b0380821115620001f457600080fd5b620002028883890162000116565b955060208701519150808211156200021957600080fd5b620002278883890162000116565b604088015190955091506001600160a01b03821682146200024757600080fd5b6060870151919350808211156200025d57600080fd5b506200026c8782880162000116565b91505092959194509250565b600181811c908216806200028d57607f821691505b602082108103620002ae57634e487b7160e01b600052602260045260246000fd5b50919050565b601f8211156200030257600081815260208120601f850160051c81016020861015620002dd5750805b601f850160051c820191505b81811015620002fe57828155600101620002e9565b5050505b505050565b81516001600160401b0381111562000323576200032362000100565b6200033b8162000334845462000278565b84620002b4565b602080601f8311600181146200037357600084156200035a5750858301515b600019600386901b1c1916600185901b178555620002fe565b600085815260208120601f198616915b82811015620003a45788860151825594840194600190910190840162000383565b5085821015620003c35787850151600019600388901b60f8161c191681555b5050505050600190811b01905550565b61233c80620003e36000396000f3fe608060405234801561001057600080fd5b506004361061018c5760003560e01c80636c0360eb116100e3578063b38586e61161008c578063c87b56dd11610066578063c87b56dd1461034b578063e985e9c51461035e578063f2fde38b146103a757600080fd5b8063b38586e614610302578063b88d4fde14610325578063bd65f4461461033857600080fd5b80638da5cb5b116100bd5780638da5cb5b146102c957806395d89b41146102e7578063a22cb465146102ef57600080fd5b80636c0360eb146102a657806370a08231146102ae578063715018a6146102c157600080fd5b80631249c58b11610145578063319513b31161011f578063319513b31461026057806342842e0e146102805780636352211e1461029357600080fd5b80631249c58b14610232578063162094c41461023a57806323b872dd1461024d57600080fd5b806306fdde031161017657806306fdde03146101d0578063081812fc146101e5578063095ea7b31461021d57600080fd5b80629a9b7b1461019157806301ffc9a7146101ad575b600080fd5b61019a600a5481565b6040519081526020015b60405180910390f35b6101c06101bb366004611d28565b6103ba565b60405190151581526020016101a4565b6101d861049f565b6040516101a49190611db3565b6101f86101f3366004611dc6565b610531565b60405173ffffffffffffffffffffffffffffffffffffffff90911681526020016101a4565b61023061022b366004611e03565b610565565b005b6102306106c2565b610230610248366004611ef0565b610713565b61023061025b366004611f4b565b610928565b6008546101f89073ffffffffffffffffffffffffffffffffffffffff1681565b61023061028e366004611f4b565b6109af565b6101f86102a1366004611dc6565b6109ca565b6101d8610a3c565b61019a6102bc366004611f87565b610aca565b610230610b7e565b60075473ffffffffffffffffffffffffffffffffffffffff166101f8565b6101d8610b92565b6102306102fd366004611fa2565b610ba1565b6101c0610310366004611dc6565b600b6020526000908152604090205460ff1681565b610230610333366004611fde565b610bb0565b610230610346366004611f87565b610c3e565b6101d8610359366004611dc6565b610c8d565b6101c061036c36600461205a565b73ffffffffffffffffffffffffffffffffffffffff918216600090815260056020908152604080832093909416825291909152205460ff1690565b6102306103b5366004611f87565b610d47565b60007fffffffff0000000000000000000000000000000000000000000000000000000082167f80ac58cd00000000000000000000000000000000000000000000000000000000148061044d57507fffffffff0000000000000000000000000000000000000000000000000000000082167f5b5e139f00000000000000000000000000000000000000000000000000000000145b8061049957507f01ffc9a7000000000000000000000000000000000000000000000000000000007fffffffff000000000000000000000000000000000000000000000000000000008316145b92915050565b6060600080546104ae9061208d565b80601f01602080910402602001604051908101604052809291908181526020018280546104da9061208d565b80156105275780601f106104fc57610100808354040283529160200191610527565b820191906000526020600020905b81548152906001019060200180831161050a57829003601f168201915b5050505050905090565b600061053c82610de4565b5060009081526004602052604090205473ffffffffffffffffffffffffffffffffffffffff1690565b6000610570826109ca565b90508073ffffffffffffffffffffffffffffffffffffffff168373ffffffffffffffffffffffffffffffffffffffff16036106185760405162461bcd60e51b815260206004820152602160248201527f4552433732313a20617070726f76616c20746f2063757272656e74206f776e6560448201527f720000000000000000000000000000000000000000000000000000000000000060648201526084015b60405180910390fd5b3373ffffffffffffffffffffffffffffffffffffffff821614806106415750610641813361036c565b6106b35760405162461bcd60e51b815260206004820152603d60248201527f4552433732313a20617070726f76652063616c6c6572206973206e6f7420746f60448201527f6b656e206f776e6572206f7220617070726f76656420666f7220616c6c000000606482015260840161060f565b6106bd8383610e55565b505050565b6106ce33600a54610ef5565b600a5460405133907f0f6798a560793a54c3bcfe86a93cde1e73087d944c0ea20544137d412139688590600090a3600a805490600061070c836120e0565b9190505550565b60085473ffffffffffffffffffffffffffffffffffffffff1633146107a05760405162461bcd60e51b815260206004820152603160248201527f4564656e4c6976656d696e743a2063616c6c6572206973206e6f74207468652060448201527f6d65746164617461206d6f646966696572000000000000000000000000000000606482015260840161060f565b60008281526002602052604090205473ffffffffffffffffffffffffffffffffffffffff166108375760405162461bcd60e51b815260206004820152602260248201527f4564656e4c6976656d696e743a20746f6b656e20646f6573206e6f742065786960448201527f7374000000000000000000000000000000000000000000000000000000000000606482015260840161060f565b6000828152600b602052604090205460ff16156108bc5760405162461bcd60e51b815260206004820152602760248201527f4564656e4c6976656d696e743a206d6574616461746120616c7265616479206d60448201527f6f64696669656400000000000000000000000000000000000000000000000000606482015260840161060f565b6108c68282610f0f565b6000828152600b602052604080822080547fffffffffffffffffffffffffffffffffffffffffffffffffffffffffffffff001660011790555183917ff8e1a15aba9398e019f0b49df1a4fde98ee17ae345cb5f6b5e2c27f5033e8ce791a25050565b6109323382610fbe565b6109a45760405162461bcd60e51b815260206004820152602d60248201527f4552433732313a2063616c6c6572206973206e6f7420746f6b656e206f776e6560448201527f72206f7220617070726f76656400000000000000000000000000000000000000606482015260840161060f565b6106bd83838361107e565b6106bd83838360405180602001604052806000815250610bb0565b60008181526002602052604081205473ffffffffffffffffffffffffffffffffffffffff16806104995760405162461bcd60e51b815260206004820152601860248201527f4552433732313a20696e76616c696420746f6b656e2049440000000000000000604482015260640161060f565b60098054610a499061208d565b80601f0160208091040260200160405190810160405280929190818152602001828054610a759061208d565b8015610ac25780601f10610a9757610100808354040283529160200191610ac2565b820191906000526020600020905b815481529060010190602001808311610aa557829003601f168201915b505050505081565b600073ffffffffffffffffffffffffffffffffffffffff8216610b555760405162461bcd60e51b815260206004820152602960248201527f4552433732313a2061646472657373207a65726f206973206e6f74206120766160448201527f6c6964206f776e65720000000000000000000000000000000000000000000000606482015260840161060f565b5073ffffffffffffffffffffffffffffffffffffffff1660009081526003602052604090205490565b610b8661132b565b610b906000611392565b565b6060600180546104ae9061208d565b610bac338383611409565b5050565b610bba3383610fbe565b610c2c5760405162461bcd60e51b815260206004820152602d60248201527f4552433732313a2063616c6c6572206973206e6f7420746f6b656e206f776e6560448201527f72206f7220617070726f76656400000000000000000000000000000000000000606482015260840161060f565b610c388484848461151c565b50505050565b610c4661132b565b600880547fffffffffffffffffffffffff00000000000000000000000000000000000000001673ffffffffffffffffffffffffffffffffffffffff92909216919091179055565b6000818152600b602052604090205460609060ff1615610cb057610499826115a5565b60098054610cbd9061208d565b80601f0160208091040260200160405190810160405280929190818152602001828054610ce99061208d565b8015610d365780601f10610d0b57610100808354040283529160200191610d36565b820191906000526020600020905b815481529060010190602001808311610d1957829003601f168201915b50505050509050919050565b919050565b610d4f61132b565b73ffffffffffffffffffffffffffffffffffffffff8116610dd85760405162461bcd60e51b815260206004820152602660248201527f4f776e61626c653a206e6577206f776e657220697320746865207a65726f206160448201527f6464726573730000000000000000000000000000000000000000000000000000606482015260840161060f565b610de181611392565b50565b60008181526002602052604090205473ffffffffffffffffffffffffffffffffffffffff16610de15760405162461bcd60e51b815260206004820152601860248201527f4552433732313a20696e76616c696420746f6b656e2049440000000000000000604482015260640161060f565b600081815260046020526040902080547fffffffffffffffffffffffff00000000000000000000000000000000000000001673ffffffffffffffffffffffffffffffffffffffff84169081179091558190610eaf826109ca565b73ffffffffffffffffffffffffffffffffffffffff167f8c5be1e5ebec7d5bd14f71427d1e84f3dd0314c0f7b2291e5b200ac8c7c3b92560405160405180910390a45050565b610bac8282604051806020016040528060008152506116ad565b60008281526002602052604090205473ffffffffffffffffffffffffffffffffffffffff16610fa65760405162461bcd60e51b815260206004820152602e60248201527f45524337323155524953746f726167653a2055524920736574206f66206e6f6e60448201527f6578697374656e7420746f6b656e000000000000000000000000000000000000606482015260840161060f565b60008281526006602052604090206106bd828261218d565b600080610fca836109ca565b90508073ffffffffffffffffffffffffffffffffffffffff168473ffffffffffffffffffffffffffffffffffffffff161480611038575073ffffffffffffffffffffffffffffffffffffffff80821660009081526005602090815260408083209388168352929052205460ff165b8061107657508373ffffffffffffffffffffffffffffffffffffffff1661105e84610531565b73ffffffffffffffffffffffffffffffffffffffff16145b949350505050565b8273ffffffffffffffffffffffffffffffffffffffff1661109e826109ca565b73ffffffffffffffffffffffffffffffffffffffff16146111275760405162461bcd60e51b815260206004820152602560248201527f4552433732313a207472616e736665722066726f6d20696e636f72726563742060448201527f6f776e6572000000000000000000000000000000000000000000000000000000606482015260840161060f565b73ffffffffffffffffffffffffffffffffffffffff82166111af5760405162461bcd60e51b8152602060048201526024808201527f4552433732313a207472616e7366657220746f20746865207a65726f2061646460448201527f7265737300000000000000000000000000000000000000000000000000000000606482015260840161060f565b8273ffffffffffffffffffffffffffffffffffffffff166111cf826109ca565b73ffffffffffffffffffffffffffffffffffffffff16146112585760405162461bcd60e51b815260206004820152602560248201527f4552433732313a207472616e736665722066726f6d20696e636f72726563742060448201527f6f776e6572000000000000000000000000000000000000000000000000000000606482015260840161060f565b600081815260046020908152604080832080547fffffffffffffffffffffffff000000000000000000000000000000000000000090811690915573ffffffffffffffffffffffffffffffffffffffff8781168086526003855283862080547fffffffffffffffffffffffffffffffffffffffffffffffffffffffffffffffff01905590871680865283862080546001019055868652600290945282852080549092168417909155905184937fddf252ad1be2c89b69c2b068fc378daa952ba7f163c4a11628f55a4df523b3ef91a4505050565b60075473ffffffffffffffffffffffffffffffffffffffff163314610b905760405162461bcd60e51b815260206004820181905260248201527f4f776e61626c653a2063616c6c6572206973206e6f7420746865206f776e6572604482015260640161060f565b6007805473ffffffffffffffffffffffffffffffffffffffff8381167fffffffffffffffffffffffff0000000000000000000000000000000000000000831681179093556040519116919082907f8be0079c531659141344cd1fd0a4f28419497f9722a3daafe3b4186f6b6457e090600090a35050565b8173ffffffffffffffffffffffffffffffffffffffff168373ffffffffffffffffffffffffffffffffffffffff16036114845760405162461bcd60e51b815260206004820152601960248201527f4552433732313a20617070726f766520746f2063616c6c657200000000000000604482015260640161060f565b73ffffffffffffffffffffffffffffffffffffffff83811660008181526005602090815260408083209487168084529482529182902080547fffffffffffffffffffffffffffffffffffffffffffffffffffffffffffffff001686151590811790915591519182527f17307eab39ab6107e8899845ad3d59bd9653f200f220920489ca2b5937696c31910160405180910390a3505050565b61152784848461107e565b61153384848484611736565b610c385760405162461bcd60e51b815260206004820152603260248201527f4552433732313a207472616e7366657220746f206e6f6e20455243373231526560448201527f63656976657220696d706c656d656e7465720000000000000000000000000000606482015260840161060f565b60606115b082610de4565b600082815260066020526040812080546115c99061208d565b80601f01602080910402602001604051908101604052809291908181526020018280546115f59061208d565b80156116425780601f1061161757610100808354040283529160200191611642565b820191906000526020600020905b81548152906001019060200180831161162557829003601f168201915b50505050509050600061166060408051602081019091526000815290565b90508051600003611672575092915050565b8151156116a457808260405160200161168c9291906122a7565b60405160208183030381529060405292505050919050565b6110768461190f565b6116b78383611983565b6116c46000848484611736565b6106bd5760405162461bcd60e51b815260206004820152603260248201527f4552433732313a207472616e7366657220746f206e6f6e20455243373231526560448201527f63656976657220696d706c656d656e7465720000000000000000000000000000606482015260840161060f565b600073ffffffffffffffffffffffffffffffffffffffff84163b15611904576040517f150b7a0200000000000000000000000000000000000000000000000000000000815273ffffffffffffffffffffffffffffffffffffffff85169063150b7a02906117ad9033908990889088906004016122d6565b6020604051808303816000875af1925050508015611806575060408051601f3d9081017fffffffffffffffffffffffffffffffffffffffffffffffffffffffffffffffe01682019092526118039181019061231f565b60015b6118b9573d808015611834576040519150601f19603f3d011682016040523d82523d6000602084013e611839565b606091505b5080516000036118b15760405162461bcd60e51b815260206004820152603260248201527f4552433732313a207472616e7366657220746f206e6f6e20455243373231526560448201527f63656976657220696d706c656d656e7465720000000000000000000000000000606482015260840161060f565b805181602001fd5b7fffffffff00000000000000000000000000000000000000000000000000000000167f150b7a0200000000000000000000000000000000000000000000000000000000149050611076565b506001949350505050565b606061191a82610de4565b600061193160408051602081019091526000815290565b90506000815111611951576040518060200160405280600081525061197c565b8061195b84611b5a565b60405160200161196c9291906122a7565b6040516020818303038152906040525b9392505050565b73ffffffffffffffffffffffffffffffffffffffff82166119e65760405162461bcd60e51b815260206004820181905260248201527f4552433732313a206d696e7420746f20746865207a65726f2061646472657373604482015260640161060f565b60008181526002602052604090205473ffffffffffffffffffffffffffffffffffffffff1615611a585760405162461bcd60e51b815260206004820152601c60248201527f4552433732313a20746f6b656e20616c7265616479206d696e74656400000000604482015260640161060f565b60008181526002602052604090205473ffffffffffffffffffffffffffffffffffffffff1615611aca5760405162461bcd60e51b815260206004820152601c60248201527f4552433732313a20746f6b656e20616c7265616479206d696e74656400000000604482015260640161060f565b73ffffffffffffffffffffffffffffffffffffffff8216600081815260036020908152604080832080546001019055848352600290915280822080547fffffffffffffffffffffffff0000000000000000000000000000000000000000168417905551839291907fddf252ad1be2c89b69c2b068fc378daa952ba7f163c4a11628f55a4df523b3ef908290a45050565b60606000611b6783611c18565b600101905060008167ffffffffffffffff811115611b8757611b87611e2d565b6040519080825280601f01601f191660200182016040528015611bb1576020820181803683370190505b5090508181016020015b7fffffffffffffffffffffffffffffffffffffffffffffffffffffffffffffffff017f3031323334353637383961626364656600000000000000000000000000000000600a86061a8153600a8504945084611bbb57509392505050565b6000807a184f03e93ff9f4daa797ed6e38ed64bf6a1f0100000000000000008310611c61577a184f03e93ff9f4daa797ed6e38ed64bf6a1f010000000000000000830492506040015b6d04ee2d6d415b85acef81000000008310611c8d576d04ee2d6d415b85acef8100000000830492506020015b662386f26fc100008310611cab57662386f26fc10000830492506010015b6305f5e1008310611cc3576305f5e100830492506008015b6127108310611cd757612710830492506004015b60648310611ce9576064830492506002015b600a83106104995760010192915050565b7fffffffff0000000000000000000000000000000000000000000000000000000081168114610de157600080fd5b600060208284031215611d3a57600080fd5b813561197c81611cfa565b60005b83811015611d60578181015183820152602001611d48565b50506000910152565b60008151808452611d81816020860160208601611d45565b601f017fffffffffffffffffffffffffffffffffffffffffffffffffffffffffffffffe0169290920160200192915050565b60208152600061197c6020830184611d69565b600060208284031215611dd857600080fd5b5035919050565b803573ffffffffffffffffffffffffffffffffffffffff81168114610d4257600080fd5b60008060408385031215611e1657600080fd5b611e1f83611ddf565b946020939093013593505050565b7f4e487b7100000000000000000000000000000000000000000000000000000000600052604160045260246000fd5b600067ffffffffffffffff80841115611e7757611e77611e2d565b604051601f85017fffffffffffffffffffffffffffffffffffffffffffffffffffffffffffffffe0908116603f01168101908282118183101715611ebd57611ebd611e2d565b81604052809350858152868686011115611ed657600080fd5b858560208301376000602087830101525050509392505050565b60008060408385031215611f0357600080fd5b82359150602083013567ffffffffffffffff811115611f2157600080fd5b8301601f81018513611f3257600080fd5b611f4185823560208401611e5c565b9150509250929050565b600080600060608486031215611f6057600080fd5b611f6984611ddf565b9250611f7760208501611ddf565b9150604084013590509250925092565b600060208284031215611f9957600080fd5b61197c82611ddf565b60008060408385031215611fb557600080fd5b611fbe83611ddf565b915060208301358015158114611fd357600080fd5b809150509250929050565b60008060008060808587031215611ff457600080fd5b611ffd85611ddf565b935061200b60208601611ddf565b925060408501359150606085013567ffffffffffffffff81111561202e57600080fd5b8501601f8101871361203f57600080fd5b61204e87823560208401611e5c565b91505092959194509250565b6000806040838503121561206d57600080fd5b61207683611ddf565b915061208460208401611ddf565b90509250929050565b600181811c908216806120a157607f821691505b6020821081036120da577f4e487b7100000000000000000000000000000000000000000000000000000000600052602260045260246000fd5b50919050565b60007fffffffffffffffffffffffffffffffffffffffffffffffffffffffffffffffff8203612138577f4e487b7100000000000000000000000000000000000000000000000000000000600052601160045260246000fd5b5060010190565b601f8211156106bd57600081815260208120601f850160051c810160208610156121665750805b601f850160051c820191505b8181101561218557828155600101612172565b505050505050565b815167ffffffffffffffff8111156121a7576121a7611e2d565b6121bb816121b5845461208d565b8461213f565b602080601f83116001811461220e57600084156121d85750858301515b7fffffffffffffffffffffffffffffffffffffffffffffffffffffffffffffffff600386901b1c1916600185901b178555612185565b6000858152602081207fffffffffffffffffffffffffffffffffffffffffffffffffffffffffffffffe08616915b8281101561225b5788860151825594840194600190910190840161223c565b508582101561229757878501517fffffffffffffffffffffffffffffffffffffffffffffffffffffffffffffffff600388901b60f8161c191681555b5050505050600190811b01905550565b600083516122b9818460208801611d45565b8351908301906122cd818360208801611d45565b01949350505050565b600073ffffffffffffffffffffffffffffffffffffffff8087168352808616602084015250836040830152608060608301526123156080830184611d69565b9695505050505050565b60006020828403121561233157600080fd5b815161197c81611cfa56",
    "linkReferences": {}
  },
  "methodIdentifiers": {
    "approve(address,uint256)": "095ea7b3",
    "balanceOf(address)": "70a08231",
    "baseURI()": "6c0360eb",
    "currentTokenId()": "009a9b7b",
    "getApproved(uint256)": "081812fc",
    "isApprovedForAll(address,address)": "e985e9c5",
    "metadataModified(uint256)": "b38586e6",
    "metadataModifierAddress()": "319513b3",
    "mint()": "1249c58b",
    "name()": "06fdde03",
    "owner()": "8da5cb5b",
    "ownerOf(uint256)": "6352211e",
    "renounceOwnership()": "715018a6",
    "safeTransferFrom(address,address,uint256)": "42842e0e",
    "safeTransferFrom(address,address,uint256,bytes)": "b88d4fde",
    "setApprovalForAll(address,bool)": "a22cb465",
    "setMetadataModifierAddress(address)": "bd65f446",
    "setTokenURI(uint256,string)": "162094c4",
    "supportsInterface(bytes4)": "01ffc9a7",
    "symbol()": "95d89b41",
    "tokenURI(uint256)": "c87b56dd",
    "transferFrom(address,address,uint256)": "23b872dd",
    "transferOwnership(address)": "f2fde38b"
  },
  "id": 30
}